{
  "contractName": "EcommerceStore",
  "abi": [
    {
      "anonymous": false,
      "inputs": [
        {
          "indexed": false,
          "internalType": "uint256",
          "name": "_productId",
          "type": "uint256"
        },
        {
          "indexed": false,
          "internalType": "string",
          "name": "_name",
          "type": "string"
        },
        {
          "indexed": false,
          "internalType": "string",
          "name": "_category",
          "type": "string"
        },
        {
          "indexed": false,
          "internalType": "string",
          "name": "_imageLink",
          "type": "string"
        },
        {
          "indexed": false,
          "internalType": "string",
          "name": "_descLink",
          "type": "string"
        },
        {
          "indexed": false,
          "internalType": "uint256",
          "name": "_auctionStartTime",
          "type": "uint256"
        },
        {
          "indexed": false,
          "internalType": "uint256",
          "name": "_auctionEndTime",
          "type": "uint256"
        },
        {
          "indexed": false,
          "internalType": "uint256",
          "name": "_startPrice",
          "type": "uint256"
        },
        {
          "indexed": false,
          "internalType": "uint256",
          "name": "_productCondition",
          "type": "uint256"
        }
      ],
      "name": "NewProduct",
      "type": "event"
    },
    {
      "inputs": [],
      "name": "productIndex",
      "outputs": [
        {
          "internalType": "uint256",
          "name": "",
          "type": "uint256"
        }
      ],
      "stateMutability": "view",
      "type": "function",
      "constant": true
    },
    {
      "inputs": [
        {
          "internalType": "uint256",
          "name": "index_",
          "type": "uint256"
        }
      ],
      "name": "store",
      "outputs": [],
      "stateMutability": "nonpayable",
      "type": "function"
    },
    {
      "inputs": [
        {
          "internalType": "string",
          "name": "_name",
          "type": "string"
        },
        {
          "internalType": "string",
          "name": "_category",
          "type": "string"
        },
        {
          "internalType": "string",
          "name": "_imageLink",
          "type": "string"
        },
        {
          "internalType": "string",
          "name": "_descLink",
          "type": "string"
        },
        {
          "internalType": "uint256",
          "name": "_auctionStartTime",
          "type": "uint256"
        },
        {
          "internalType": "uint256",
          "name": "_auctionEndTime",
          "type": "uint256"
        },
        {
          "internalType": "string",
          "name": "_startPrice",
          "type": "string"
        },
        {
          "internalType": "uint256",
          "name": "_productCondition",
          "type": "uint256"
        }
      ],
      "name": "addProductToStore",
      "outputs": [],
      "stateMutability": "nonpayable",
      "type": "function"
    },
    {
      "inputs": [
        {
          "internalType": "uint256",
          "name": "_productId",
          "type": "uint256"
        }
      ],
      "name": "getProduct",
      "outputs": [
        {
          "internalType": "uint256",
          "name": "",
          "type": "uint256"
        },
        {
          "internalType": "string",
          "name": "",
          "type": "string"
        },
        {
          "internalType": "string",
          "name": "",
          "type": "string"
        },
        {
          "internalType": "string",
          "name": "",
          "type": "string"
        },
        {
          "internalType": "string",
          "name": "",
          "type": "string"
        },
        {
          "internalType": "uint256",
          "name": "",
          "type": "uint256"
        },
        {
          "internalType": "uint256",
          "name": "",
          "type": "uint256"
        },
        {
          "internalType": "uint256",
          "name": "",
          "type": "uint256"
        },
        {
          "internalType": "enum EcommerceStore.ProductStatus",
          "name": "",
          "type": "uint8"
        },
        {
          "internalType": "enum EcommerceStore.ProductCondition",
          "name": "",
          "type": "uint8"
        }
      ],
      "stateMutability": "view",
      "type": "function",
      "constant": true
    },
    {
      "inputs": [],
      "name": "getProductCount",
      "outputs": [
        {
          "internalType": "uint256",
          "name": "",
          "type": "uint256"
        }
      ],
      "stateMutability": "view",
      "type": "function",
      "constant": true
    },
    {
      "inputs": [
        {
          "internalType": "uint256",
          "name": "_productId",
          "type": "uint256"
        },
        {
          "internalType": "bytes32",
          "name": "_bid",
          "type": "bytes32"
        }
      ],
      "name": "bid",
      "outputs": [
        {
          "internalType": "bool",
          "name": "",
          "type": "bool"
        }
      ],
      "stateMutability": "payable",
      "type": "function",
      "payable": true
    },
    {
      "inputs": [
        {
          "internalType": "uint256",
          "name": "_productId",
          "type": "uint256"
        },
        {
          "internalType": "string",
          "name": "_amount",
          "type": "string"
        },
        {
          "internalType": "string",
          "name": "_secret",
          "type": "string"
        }
      ],
      "name": "revealBid",
      "outputs": [],
      "stateMutability": "nonpayable",
      "type": "function"
    },
    {
      "inputs": [
        {
          "internalType": "uint256",
          "name": "_productId",
          "type": "uint256"
        }
      ],
      "name": "highestBidderInfo",
      "outputs": [
        {
          "internalType": "address",
          "name": "",
          "type": "address"
        },
        {
          "internalType": "uint256",
          "name": "",
          "type": "uint256"
        },
        {
          "internalType": "uint256",
          "name": "",
          "type": "uint256"
        }
      ],
      "stateMutability": "view",
      "type": "function",
      "constant": true
    },
    {
      "inputs": [
        {
          "internalType": "uint256",
          "name": "_productId",
          "type": "uint256"
        }
      ],
      "name": "totalBids",
      "outputs": [
        {
          "internalType": "uint256",
          "name": "",
          "type": "uint256"
        }
      ],
      "stateMutability": "view",
      "type": "function",
      "constant": true
    },
    {
      "inputs": [
        {
          "internalType": "uint256",
          "name": "_productId",
          "type": "uint256"
        }
      ],
      "name": "finalizeAuction",
      "outputs": [],
      "stateMutability": "nonpayable",
      "type": "function"
    },
    {
      "inputs": [
        {
          "internalType": "uint256",
          "name": "_productId",
          "type": "uint256"
        }
      ],
      "name": "escrowAddressForProduct",
      "outputs": [
        {
          "internalType": "address",
          "name": "",
          "type": "address"
        }
      ],
      "stateMutability": "view",
      "type": "function",
      "constant": true
    },
    {
      "inputs": [
        {
          "internalType": "uint256",
          "name": "_productId",
          "type": "uint256"
        }
      ],
      "name": "escrowInfo",
      "outputs": [
        {
          "internalType": "address",
          "name": "",
          "type": "address"
        },
        {
          "internalType": "address",
          "name": "",
          "type": "address"
        },
        {
          "internalType": "address",
          "name": "",
          "type": "address"
        },
        {
          "internalType": "bool",
          "name": "",
          "type": "bool"
        },
        {
          "internalType": "uint256",
          "name": "",
          "type": "uint256"
        },
        {
          "internalType": "uint256",
          "name": "",
          "type": "uint256"
        }
      ],
      "stateMutability": "view",
      "type": "function",
      "constant": true
    },
    {
      "inputs": [
        {
          "internalType": "uint256",
          "name": "_productId",
          "type": "uint256"
        }
      ],
      "name": "releaseAmountToSeller",
      "outputs": [],
      "stateMutability": "nonpayable",
      "type": "function"
    },
    {
      "inputs": [
        {
          "internalType": "uint256",
          "name": "_productId",
          "type": "uint256"
        }
      ],
      "name": "refundAmountToBuyer",
      "outputs": [],
      "stateMutability": "nonpayable",
      "type": "function"
    },
    {
      "inputs": [
        {
          "internalType": "string",
          "name": "_amount",
          "type": "string"
        },
        {
          "internalType": "string",
          "name": "_secret",
          "type": "string"
        }
      ],
      "name": "keccak",
      "outputs": [
        {
          "internalType": "bytes32",
          "name": "",
          "type": "bytes32"
        }
      ],
      "stateMutability": "pure",
      "type": "function",
      "constant": true
    }
  ],
  "bytecode": "0x608060405234801561001057600080fd5b50613bad806100206000396000f3fe608060405260043610620000fe5760003560e01c8063b9db15b41162000097578063e80838631162000061578063e8083863146200037f578063ea1591bb14620003ad578063f0d10d0114620003e3578063f85f196e146200042757620000fe565b8063b9db15b4146200028e578063c897d5a614620002db578063cc352db7146200030b578063ce818ea9146200033957620000fe565b80634a348da911620000d95780634a348da914620001b95780636057361d14620001e95780638356052514620002175780639a3a7c69146200026057620000fe565b80630e1c88d4146200010357806328e3d19014620001315780634389754a1462000175575b600080fd5b3480156200011057600080fd5b506200012f600480360381019062000129919062001c34565b62000455565b005b3480156200013e57600080fd5b506200015d600480360381019062000157919062001d98565b62000679565b6040516200016c919062001ddb565b60405180910390f35b3480156200018257600080fd5b50620001a160048036038101906200019b919062001d98565b6200070e565b604051620001b0919062001e3d565b60405180910390f35b348015620001c657600080fd5b50620001d16200074b565b604051620001e0919062001ddb565b60405180910390f35b348015620001f657600080fd5b506200021560048036038101906200020f919062001d98565b62000754565b005b3480156200022457600080fd5b506200024360048036038101906200023d919062001d98565b6200075e565b604051620002579695949392919062001e77565b60405180910390f35b3480156200026d57600080fd5b506200028c600480360381019062000286919062001d98565b62000821565b005b3480156200029b57600080fd5b50620002ba6004803603810190620002b4919062001d98565b620008c6565b604051620002d29a999897969594939291906200203e565b60405180910390f35b348015620002e857600080fd5b50620002f362000c16565b60405162000302919062001ddb565b60405180910390f35b3480156200031857600080fd5b5062000337600480360381019062000331919062001d98565b62000c1c565b005b3480156200034657600080fd5b506200036560048036038101906200035f919062001d98565b62000cc1565b60405162000376939291906200210a565b60405180910390f35b3480156200038c57600080fd5b50620003ab6004803603810190620003a5919062001d98565b62000d89565b005b620003cb6004803603810190620003c5919062002182565b62001171565b604051620003da9190620021c9565b60405180910390f35b348015620003f057600080fd5b506200040f6004803603810190620004099190620021e6565b62001481565b6040516200041e91906200227c565b60405180910390f35b3480156200043457600080fd5b506200045360048036038101906200044d919062002299565b620014b6565b005b8284106200046257600080fd5b600160008082825462000476919062002362565b925050819055506000600160003373ffffffffffffffffffffffffffffffffffffffff1673ffffffffffffffffffffffffffffffffffffffff1681526020019081526020016000206000805481526020019081526020016000209050600054816000018190555088816001019081620004f09190620025d3565b5087816002019081620005049190620025d3565b5086816003019081620005189190620025d3565b50858160040190816200052c9190620025d3565b508481600501819055508381600601819055506200054a8362001988565b8160070181905550600081600c0160006101000a81548160ff021916908360028111156200057d576200057c62001f6d565b5b021790555081600181111562000598576200059762001f6d565b5b81600c0160016101000a81548160ff02191690836001811115620005c157620005c062001f6d565b5b021790555033600260008054815260200190815260200160002060006101000a81548173ffffffffffffffffffffffffffffffffffffffff021916908373ffffffffffffffffffffffffffffffffffffffff1602179055507f7246fb63256d85d227c3255d8d4f49ff574a42ec76096803c81c0d6b58ac5a716000548a8a8a8a8a8a6200064e8b62001988565b8a6040516200066699989796959493929190620026ba565b60405180910390a1505050505050505050565b600080600160006002600086815260200190815260200160002060009054906101000a900473ffffffffffffffffffffffffffffffffffffffff1673ffffffffffffffffffffffffffffffffffffffff1673ffffffffffffffffffffffffffffffffffffffff1681526020019081526020016000206000848152602001908152602001600020905080600b0154915050919050565b60006003600083815260200190815260200160002060009054906101000a900473ffffffffffffffffffffffffffffffffffffffff169050919050565b60008054905090565b8060008190555050565b6000806000806000806003600088815260200190815260200160002060009054906101000a900473ffffffffffffffffffffffffffffffffffffffff1673ffffffffffffffffffffffffffffffffffffffff1663f3d259046040518163ffffffff1660e01b815260040160c060405180830381865afa158015620007e6573d6000803e3d6000fd5b505050506040513d601f19601f820116820180604052508101906200080c9190620027ee565b95509550955095509550955091939550919395565b6003600082815260200190815260200160002060009054906101000a900473ffffffffffffffffffffffffffffffffffffffff1673ffffffffffffffffffffffffffffffffffffffff166358aad10b336040518263ffffffff1660e01b81526004016200088f919062001e3d565b600060405180830381600087803b158015620008aa57600080fd5b505af1158015620008bf573d6000803e3d6000fd5b5050505050565b600060608060608060008060008060008060016000600260008f815260200190815260200160002060009054906101000a900473ffffffffffffffffffffffffffffffffffffffff1673ffffffffffffffffffffffffffffffffffffffff1673ffffffffffffffffffffffffffffffffffffffff16815260200190815260200160002060008d8152602001908152602001600020905080600001548160010182600201836003018460040185600501548660060154876007015488600c0160009054906101000a900460ff1689600c0160019054906101000a900460ff16888054620009b290620023cc565b80601f0160208091040260200160405190810160405280929190818152602001828054620009e090620023cc565b801562000a315780601f1062000a055761010080835404028352916020019162000a31565b820191906000526020600020905b81548152906001019060200180831162000a1357829003601f168201915b5050505050985087805462000a4690620023cc565b80601f016020809104026020016040519081016040528092919081815260200182805462000a7490620023cc565b801562000ac55780601f1062000a995761010080835404028352916020019162000ac5565b820191906000526020600020905b81548152906001019060200180831162000aa757829003601f168201915b5050505050975086805462000ada90620023cc565b80601f016020809104026020016040519081016040528092919081815260200182805462000b0890620023cc565b801562000b595780601f1062000b2d5761010080835404028352916020019162000b59565b820191906000526020600020905b81548152906001019060200180831162000b3b57829003601f168201915b5050505050965085805462000b6e90620023cc565b80601f016020809104026020016040519081016040528092919081815260200182805462000b9c90620023cc565b801562000bed5780601f1062000bc15761010080835404028352916020019162000bed565b820191906000526020600020905b81548152906001019060200180831162000bcf57829003601f168201915b505050505095509a509a509a509a509a509a509a509a509a509a50509193959799509193959799565b60005481565b6003600082815260200190815260200160002060009054906101000a900473ffffffffffffffffffffffffffffffffffffffff1673ffffffffffffffffffffffffffffffffffffffff1663a97d1b10336040518263ffffffff1660e01b815260040162000c8a919062001e3d565b600060405180830381600087803b15801562000ca557600080fd5b505af115801562000cba573d6000803e3d6000fd5b5050505050565b600080600080600160006002600088815260200190815260200160002060009054906101000a900473ffffffffffffffffffffffffffffffffffffffff1673ffffffffffffffffffffffffffffffffffffffff1673ffffffffffffffffffffffffffffffffffffffff168152602001908152602001600020600086815260200190815260200160002090508060080160009054906101000a900473ffffffffffffffffffffffffffffffffffffffff16816009015482600a0154935093509350509193909250565b6000600160006002600085815260200190815260200160002060009054906101000a900473ffffffffffffffffffffffffffffffffffffffff1673ffffffffffffffffffffffffffffffffffffffff1673ffffffffffffffffffffffffffffffffffffffff168152602001908152602001600020600083815260200190815260200160002090508060060154421162000e2157600080fd5b6000600281111562000e385762000e3762001f6d565b5b81600c0160009054906101000a900460ff16600281111562000e5f5762000e5e62001f6d565b5b1462000e6a57600080fd5b3373ffffffffffffffffffffffffffffffffffffffff168160080160009054906101000a900473ffffffffffffffffffffffffffffffffffffffff1673ffffffffffffffffffffffffffffffffffffffff160362000ec757600080fd5b3373ffffffffffffffffffffffffffffffffffffffff166002600084815260200190815260200160002060009054906101000a900473ffffffffffffffffffffffffffffffffffffffff1673ffffffffffffffffffffffffffffffffffffffff160362000f3357600080fd5b600073ffffffffffffffffffffffffffffffffffffffff168160080160009054906101000a900473ffffffffffffffffffffffffffffffffffffffff1673ffffffffffffffffffffffffffffffffffffffff160362000fc257600281600c0160006101000a81548160ff0219169083600281111562000fb75762000fb662001f6d565b5b02179055506200116d565b600081600a0154838360080160009054906101000a900473ffffffffffffffffffffffffffffffffffffffff166002600087815260200190815260200160002060009054906101000a900473ffffffffffffffffffffffffffffffffffffffff1633604051620010329062001a75565b6200104194939291906200288a565b6040518091039082f09050801580156200105f573d6000803e3d6000fd5b509050806003600085815260200190815260200160002060006101000a81548173ffffffffffffffffffffffffffffffffffffffff021916908373ffffffffffffffffffffffffffffffffffffffff160217905550600182600c0160006101000a81548160ff02191690836002811115620010df57620010de62001f6d565b5b0217905550600082600a01548360090154620010fc9190620028d7565b90508260080160009054906101000a900473ffffffffffffffffffffffffffffffffffffffff1673ffffffffffffffffffffffffffffffffffffffff166108fc829081150290604051600060405180830381858888f1935050505015801562001169573d6000803e3d6000fd5b5050505b5050565b600080600160006002600087815260200190815260200160002060009054906101000a900473ffffffffffffffffffffffffffffffffffffffff1673ffffffffffffffffffffffffffffffffffffffff1673ffffffffffffffffffffffffffffffffffffffff1681526020019081526020016000206000858152602001908152602001600020905080600501544210156200120b57600080fd5b80600601544211156200121d57600080fd5b806007015434101562001267576040517f08c379a00000000000000000000000000000000000000000000000000000000081526004016200125e9062002962565b60405180910390fd5b600073ffffffffffffffffffffffffffffffffffffffff1681600d0160003373ffffffffffffffffffffffffffffffffffffffff1673ffffffffffffffffffffffffffffffffffffffff168152602001908152602001600020600085815260200190815260200160002060000160009054906101000a900473ffffffffffffffffffffffffffffffffffffffff1673ffffffffffffffffffffffffffffffffffffffff16146200134e576040517f08c379a00000000000000000000000000000000000000000000000000000000081526004016200134590620029d4565b60405180910390fd5b60405180608001604052803373ffffffffffffffffffffffffffffffffffffffff1681526020018581526020013481526020016000151581525081600d0160003373ffffffffffffffffffffffffffffffffffffffff1673ffffffffffffffffffffffffffffffffffffffff168152602001908152602001600020600085815260200190815260200160002060008201518160000160006101000a81548173ffffffffffffffffffffffffffffffffffffffff021916908373ffffffffffffffffffffffffffffffffffffffff160217905550602082015181600101556040820151816002015560608201518160030160006101000a81548160ff021916908315150217905550905050600181600b0160008282546200146f919062002362565b92505081905550600191505092915050565b600082826040516020016200149892919062002a38565b60405160208183030381529060405280519060200120905092915050565b6000600160006002600087815260200190815260200160002060009054906101000a900473ffffffffffffffffffffffffffffffffffffffff1673ffffffffffffffffffffffffffffffffffffffff1673ffffffffffffffffffffffffffffffffffffffff16815260200190815260200160002060008581526020019081526020016000209050806005015442116200154e57600080fd5b600083836040516020016200156592919062002a60565b604051602081830303815290604052805190602001209050600082600d0160003373ffffffffffffffffffffffffffffffffffffffff1673ffffffffffffffffffffffffffffffffffffffff16815260200190815260200160002060008381526020019081526020016000206040518060800160405290816000820160009054906101000a900473ffffffffffffffffffffffffffffffffffffffff1673ffffffffffffffffffffffffffffffffffffffff1673ffffffffffffffffffffffffffffffffffffffff16815260200160018201548152602001600282015481526020016003820160009054906101000a900460ff1615151515815250509050600073ffffffffffffffffffffffffffffffffffffffff16816000015173ffffffffffffffffffffffffffffffffffffffff1611620016a157600080fd5b600015158160600151151514620016b757600080fd5b600080620016c58762001988565b905060008360400151905081811015620016e257809250620018bc565b600073ffffffffffffffffffffffffffffffffffffffff168660080160009054906101000a900473ffffffffffffffffffffffffffffffffffffffff1673ffffffffffffffffffffffffffffffffffffffff1603620017aa57338660080160006101000a81548173ffffffffffffffffffffffffffffffffffffffff021916908373ffffffffffffffffffffffffffffffffffffffff160217905550818660090181905550856007015486600a01819055508181620017a29190620028d7565b9250620018bb565b85600901548211156200189657856009015486600a01819055508560080160009054906101000a900473ffffffffffffffffffffffffffffffffffffffff1673ffffffffffffffffffffffffffffffffffffffff166108fc87600901549081150290604051600060405180830381858888f1935050505015801562001833573d6000803e3d6000fd5b50338660080160006101000a81548173ffffffffffffffffffffffffffffffffffffffff021916908373ffffffffffffffffffffffffffffffffffffffff16021790555081866009018190555081816200188e9190620028d7565b9250620018ba565b85600a0154821115620018b5578186600a0181905550819250620018b9565b8192505b5b5b5b600186600d0160003373ffffffffffffffffffffffffffffffffffffffff1673ffffffffffffffffffffffffffffffffffffffff168152602001908152602001600020600087815260200190815260200160002060030160006101000a81548160ff02191690831515021790555060008311156200197d573373ffffffffffffffffffffffffffffffffffffffff166108fc849081150290604051600060405180830381858888f193505050501580156200197b573d6000803e3d6000fd5b505b505050505050505050565b6000808290506000805b825181101562001a6a576030838281518110620019b457620019b362002a9b565b5b602001015160f81c60f81b60f81c60ff1610158015620019fb57506039838281518110620019e757620019e662002a9b565b5b602001015160f81c60f81b60f81c60ff1611155b1562001a5457603083828151811062001a195762001a1862002a9b565b5b602001015160f81c60f81b60f81c62001a33919062002ad7565b60ff16600a8362001a45919062002b13565b62001a51919062002362565b91505b808062001a619062002b5e565b91505062001992565b508092505050919050565b610fcc8062002bac83390190565b6000604051905090565b600080fd5b600080fd5b600080fd5b600080fd5b6000601f19601f8301169050919050565b7f4e487b7100000000000000000000000000000000000000000000000000000000600052604160045260246000fd5b62001aec8262001aa1565b810181811067ffffffffffffffff8211171562001b0e5762001b0d62001ab2565b5b80604052505050565b600062001b2362001a83565b905062001b31828262001ae1565b919050565b600067ffffffffffffffff82111562001b545762001b5362001ab2565b5b62001b5f8262001aa1565b9050602081019050919050565b82818337600083830152505050565b600062001b9262001b8c8462001b36565b62001b17565b90508281526020810184848401111562001bb15762001bb062001a9c565b5b62001bbe84828562001b6c565b509392505050565b600082601f83011262001bde5762001bdd62001a97565b5b813562001bf084826020860162001b7b565b91505092915050565b6000819050919050565b62001c0e8162001bf9565b811462001c1a57600080fd5b50565b60008135905062001c2e8162001c03565b92915050565b600080600080600080600080610100898b03121562001c585762001c5762001a8d565b5b600089013567ffffffffffffffff81111562001c795762001c7862001a92565b5b62001c878b828c0162001bc6565b985050602089013567ffffffffffffffff81111562001cab5762001caa62001a92565b5b62001cb98b828c0162001bc6565b975050604089013567ffffffffffffffff81111562001cdd5762001cdc62001a92565b5b62001ceb8b828c0162001bc6565b965050606089013567ffffffffffffffff81111562001d0f5762001d0e62001a92565b5b62001d1d8b828c0162001bc6565b955050608062001d308b828c0162001c1d565b94505060a062001d438b828c0162001c1d565b93505060c089013567ffffffffffffffff81111562001d675762001d6662001a92565b5b62001d758b828c0162001bc6565b92505060e062001d888b828c0162001c1d565b9150509295985092959890939650565b60006020828403121562001db15762001db062001a8d565b5b600062001dc18482850162001c1d565b91505092915050565b62001dd58162001bf9565b82525050565b600060208201905062001df2600083018462001dca565b92915050565b600073ffffffffffffffffffffffffffffffffffffffff82169050919050565b600062001e258262001df8565b9050919050565b62001e378162001e18565b82525050565b600060208201905062001e54600083018462001e2c565b92915050565b60008115159050919050565b62001e718162001e5a565b82525050565b600060c08201905062001e8e600083018962001e2c565b62001e9d602083018862001e2c565b62001eac604083018762001e2c565b62001ebb606083018662001e66565b62001eca608083018562001dca565b62001ed960a083018462001dca565b979650505050505050565b600081519050919050565b600082825260208201905092915050565b60005b8381101562001f2057808201518184015260208101905062001f03565b60008484015250505050565b600062001f398262001ee4565b62001f45818562001eef565b935062001f5781856020860162001f00565b62001f628162001aa1565b840191505092915050565b7f4e487b7100000000000000000000000000000000000000000000000000000000600052602160045260246000fd5b6003811062001fb05762001faf62001f6d565b5b50565b600081905062001fc38262001f9c565b919050565b600062001fd58262001fb3565b9050919050565b62001fe78162001fc8565b82525050565b6002811062002001576200200062001f6d565b5b50565b6000819050620020148262001fed565b919050565b6000620020268262002004565b9050919050565b620020388162002019565b82525050565b60006101408201905062002056600083018d62001dca565b81810360208301526200206a818c62001f2c565b9050818103604083015262002080818b62001f2c565b9050818103606083015262002096818a62001f2c565b90508181036080830152620020ac818962001f2c565b9050620020bd60a083018862001dca565b620020cc60c083018762001dca565b620020db60e083018662001dca565b620020eb61010083018562001fdc565b620020fb6101208301846200202d565b9b9a5050505050505050505050565b600060608201905062002121600083018662001e2c565b62002130602083018562001dca565b6200213f604083018462001dca565b949350505050565b6000819050919050565b6200215c8162002147565b81146200216857600080fd5b50565b6000813590506200217c8162002151565b92915050565b600080604083850312156200219c576200219b62001a8d565b5b6000620021ac8582860162001c1d565b9250506020620021bf858286016200216b565b9150509250929050565b6000602082019050620021e0600083018462001e66565b92915050565b600080604083850312156200220057620021ff62001a8d565b5b600083013567ffffffffffffffff81111562002221576200222062001a92565b5b6200222f8582860162001bc6565b925050602083013567ffffffffffffffff81111562002253576200225262001a92565b5b620022618582860162001bc6565b9150509250929050565b620022768162002147565b82525050565b60006020820190506200229360008301846200226b565b92915050565b600080600060608486031215620022b557620022b462001a8d565b5b6000620022c58682870162001c1d565b935050602084013567ffffffffffffffff811115620022e957620022e862001a92565b5b620022f78682870162001bc6565b925050604084013567ffffffffffffffff8111156200231b576200231a62001a92565b5b620023298682870162001bc6565b9150509250925092565b7f4e487b7100000000000000000000000000000000000000000000000000000000600052601160045260246000fd5b60006200236f8262001bf9565b91506200237c8362001bf9565b925082820190508082111562002397576200239662002333565b5b92915050565b7f4e487b7100000000000000000000000000000000000000000000000000000000600052602260045260246000fd5b60006002820490506001821680620023e557607f821691505b602082108103620023fb57620023fa6200239d565b5b50919050565b60008190508160005260206000209050919050565b60006020601f8301049050919050565b600082821b905092915050565b600060088302620024657fffffffffffffffffffffffffffffffffffffffffffffffffffffffffffffffff8262002426565b62002471868362002426565b95508019841693508086168417925050509392505050565b6000819050919050565b6000620024b4620024ae620024a88462001bf9565b62002489565b62001bf9565b9050919050565b6000819050919050565b620024d08362002493565b620024e8620024df82620024bb565b84845462002433565b825550505050565b600090565b620024ff620024f0565b6200250c818484620024c5565b505050565b5b81811015620025345762002528600082620024f5565b60018101905062002512565b5050565b601f82111562002583576200254d8162002401565b620025588462002416565b8101602085101562002568578190505b62002580620025778562002416565b83018262002511565b50505b505050565b600082821c905092915050565b6000620025a86000198460080262002588565b1980831691505092915050565b6000620025c3838362002595565b9150826002028217905092915050565b620025de8262001ee4565b67ffffffffffffffff811115620025fa57620025f962001ab2565b5b620026068254620023cc565b6200261382828562002538565b600060209050601f8311600181146200264b576000841562002636578287015190505b620026428582620025b5565b865550620026b2565b601f1984166200265b8662002401565b60005b8281101562002685578489015182556001820191506020850194506020810190506200265e565b86831015620026a55784890151620026a1601f89168262002595565b8355505b6001600288020188555050505b505050505050565b600061012082019050620026d2600083018c62001dca565b8181036020830152620026e6818b62001f2c565b90508181036040830152620026fc818a62001f2c565b9050818103606083015262002712818962001f2c565b9050818103608083015262002728818862001f2c565b90506200273960a083018762001dca565b6200274860c083018662001dca565b6200275760e083018562001dca565b6200276761010083018462001dca565b9a9950505050505050505050565b620027808162001e18565b81146200278c57600080fd5b50565b600081519050620027a08162002775565b92915050565b620027b18162001e5a565b8114620027bd57600080fd5b50565b600081519050620027d181620027a6565b92915050565b600081519050620027e88162001c03565b92915050565b60008060008060008060c087890312156200280e576200280d62001a8d565b5b60006200281e89828a016200278f565b96505060206200283189828a016200278f565b95505060406200284489828a016200278f565b94505060606200285789828a01620027c0565b93505060806200286a89828a01620027d7565b92505060a06200287d89828a01620027d7565b9150509295509295509295565b6000608082019050620028a1600083018762001dca565b620028b0602083018662001e2c565b620028bf604083018562001e2c565b620028ce606083018462001e2c565b95945050505050565b6000620028e48262001bf9565b9150620028f18362001bf9565b92508282039050818111156200290c576200290b62002333565b5b92915050565b7f3d00000000000000000000000000000000000000000000000000000000000000600082015250565b60006200294a60018362001eef565b9150620029578262002912565b602082019050919050565b600060208201905081810360008301526200297d816200293b565b9050919050565b7f3d3d000000000000000000000000000000000000000000000000000000000000600082015250565b6000620029bc60028362001eef565b9150620029c98262002984565b602082019050919050565b60006020820190508181036000830152620029ef81620029ad565b9050919050565b600081905092915050565b600062002a0e8262001ee4565b62002a1a8185620029f6565b935062002a2c81856020860162001f00565b80840191505092915050565b600062002a46828562002a01565b915062002a54828462002a01565b91508190509392505050565b6000604082019050818103600083015262002a7c818562001f2c565b9050818103602083015262002a92818462001f2c565b90509392505050565b7f4e487b7100000000000000000000000000000000000000000000000000000000600052603260045260246000fd5b600060ff82169050919050565b600062002ae48262002aca565b915062002af18362002aca565b9250828203905060ff81111562002b0d5762002b0c62002333565b5b92915050565b600062002b208262001bf9565b915062002b2d8362001bf9565b925082820262002b3d8162001bf9565b9150828204841483151762002b575762002b5662002333565b5b5092915050565b600062002b6b8262001bf9565b91507fffffffffffffffffffffffffffffffffffffffffffffffffffffffffffffffff820362002ba05762002b9f62002333565b5b60018201905091905056fe608060405260405162000fcc38038062000fcc833981810160405281019062000029919062000203565b8360008190555082600160006101000a81548173ffffffffffffffffffffffffffffffffffffffff021916908373ffffffffffffffffffffffffffffffffffffffff16021790555081600260006101000a81548173ffffffffffffffffffffffffffffffffffffffff021916908373ffffffffffffffffffffffffffffffffffffffff16021790555080600360006101000a81548173ffffffffffffffffffffffffffffffffffffffff021916908373ffffffffffffffffffffffffffffffffffffffff160217905550346004819055506000600560006101000a81548160ff0219169083151502179055507f7527d0b8d16913563c5afb8fa2dc5b6257355ff7dfbefbdcfc1cf812a0f97c5e848484846040516200014c949392919062000297565b60405180910390a150505050620002e4565b600080fd5b6000819050919050565b620001788162000163565b81146200018457600080fd5b50565b60008151905062000198816200016d565b92915050565b600073ffffffffffffffffffffffffffffffffffffffff82169050919050565b6000620001cb826200019e565b9050919050565b620001dd81620001be565b8114620001e957600080fd5b50565b600081519050620001fd81620001d2565b92915050565b6000806000806080858703121562000220576200021f6200015e565b5b6000620002308782880162000187565b94505060206200024387828801620001ec565b93505060406200025687828801620001ec565b92505060606200026987828801620001ec565b91505092959194509250565b620002808162000163565b82525050565b6200029181620001be565b82525050565b6000608082019050620002ae600083018762000275565b620002bd602083018662000286565b620002cc604083018562000286565b620002db606083018462000286565b95945050505050565b610cd880620002f46000396000f3fe608060405234801561001057600080fd5b50600436106100a95760003560e01c8063aa8c217c11610071578063aa8c217c14610140578063b8d08db21461015e578063c5ce39111461017c578063d1a52e301461019a578063f3d25904146101b8578063fe25e00a146101db576100a9565b806308551a53146100ae5780630bda4dbf146100cc57806358aad10b146100ea5780637150d8ae14610106578063a97d1b1014610124575b600080fd5b6100b66101f9565b6040516100c391906109a3565b60405180910390f35b6100d461021f565b6040516100e191906109d7565b60405180910390f35b61010460048036038101906100ff9190610a23565b610225565b005b61010e61053d565b60405161011b91906109a3565b60405180910390f35b61013e60048036038101906101399190610a23565b610563565b005b61014861087b565b60405161015591906109d7565b60405180910390f35b610166610881565b60405161017391906109d7565b60405180910390f35b610184610887565b60405161019191906109d7565b60405180910390f35b6101a261088d565b6040516101af9190610a6b565b60405180910390f35b6101c06108a0565b6040516101d296959493929190610a86565b60405180910390f35b6101e361093c565b6040516101f091906109a3565b60405180910390f35b600260009054906101000a900473ffffffffffffffffffffffffffffffffffffffff1681565b60095481565b600560009054906101000a900460ff161561023f57600080fd5b600160009054906101000a900473ffffffffffffffffffffffffffffffffffffffff1673ffffffffffffffffffffffffffffffffffffffff168173ffffffffffffffffffffffffffffffffffffffff1614806102e85750600260009054906101000a900473ffffffffffffffffffffffffffffffffffffffff1673ffffffffffffffffffffffffffffffffffffffff168173ffffffffffffffffffffffffffffffffffffffff16145b806103405750600360009054906101000a900473ffffffffffffffffffffffffffffffffffffffff1673ffffffffffffffffffffffffffffffffffffffff168173ffffffffffffffffffffffffffffffffffffffff16145b61034957600080fd5b600660008273ffffffffffffffffffffffffffffffffffffffff1673ffffffffffffffffffffffffffffffffffffffff16815260200190815260200160002060009054906101000a900460ff16610448576001600660008373ffffffffffffffffffffffffffffffffffffffff1673ffffffffffffffffffffffffffffffffffffffff16815260200190815260200160002060006101000a81548160ff0219169083151502179055506001600760008282546104059190610b16565b925050819055507fe31e37941fee7dca6bb1597da71841499d8cd0dfc5553e0889f6d1ca6038ce966000548260405161043f929190610ba7565b60405180910390a15b60026007540361053a57600260009054906101000a900473ffffffffffffffffffffffffffffffffffffffff1673ffffffffffffffffffffffffffffffffffffffff166108fc6004549081150290604051600060405180830381858888f193505050501580156104bc573d6000803e3d6000fd5b506001600560006101000a81548160ff0219169083151502179055507fdde1058856b8611b1f49ef2ebaef10c0441e48e8a6cbbec1ebdcbfb1862b57b4600054600454600260009054906101000a900473ffffffffffffffffffffffffffffffffffffffff1660405161053193929190610be3565b60405180910390a15b50565b600160009054906101000a900473ffffffffffffffffffffffffffffffffffffffff1681565b600560009054906101000a900460ff161561057d57600080fd5b600160009054906101000a900473ffffffffffffffffffffffffffffffffffffffff1673ffffffffffffffffffffffffffffffffffffffff168173ffffffffffffffffffffffffffffffffffffffff1614806106265750600260009054906101000a900473ffffffffffffffffffffffffffffffffffffffff1673ffffffffffffffffffffffffffffffffffffffff168173ffffffffffffffffffffffffffffffffffffffff16145b8061067e5750600360009054906101000a900473ffffffffffffffffffffffffffffffffffffffff1673ffffffffffffffffffffffffffffffffffffffff168173ffffffffffffffffffffffffffffffffffffffff16145b61068757600080fd5b600860008273ffffffffffffffffffffffffffffffffffffffff1673ffffffffffffffffffffffffffffffffffffffff16815260200190815260200160002060009054906101000a900460ff16610786576001600860008373ffffffffffffffffffffffffffffffffffffffff1673ffffffffffffffffffffffffffffffffffffffff16815260200190815260200160002060006101000a81548160ff0219169083151502179055506001600960008282546107439190610b16565b925050819055507fe31e37941fee7dca6bb1597da71841499d8cd0dfc5553e0889f6d1ca6038ce966000548260405161077d929190610c66565b60405180910390a15b60026009540361087857600160009054906101000a900473ffffffffffffffffffffffffffffffffffffffff1673ffffffffffffffffffffffffffffffffffffffff166108fc6004549081150290604051600060405180830381858888f193505050501580156107fa573d6000803e3d6000fd5b506001600560006101000a81548160ff0219169083151502179055507fdde1058856b8611b1f49ef2ebaef10c0441e48e8a6cbbec1ebdcbfb1862b57b4600054600454600160009054906101000a900473ffffffffffffffffffffffffffffffffffffffff1660405161086f93929190610be3565b60405180910390a15b50565b60045481565b60075481565b60005481565b600560009054906101000a900460ff1681565b600080600080600080600160009054906101000a900473ffffffffffffffffffffffffffffffffffffffff16600260009054906101000a900473ffffffffffffffffffffffffffffffffffffffff16600360009054906101000a900473ffffffffffffffffffffffffffffffffffffffff16600560009054906101000a900460ff16600754600954955095509550955095509550909192939495565b600360009054906101000a900473ffffffffffffffffffffffffffffffffffffffff1681565b600073ffffffffffffffffffffffffffffffffffffffff82169050919050565b600061098d82610962565b9050919050565b61099d81610982565b82525050565b60006020820190506109b86000830184610994565b92915050565b6000819050919050565b6109d1816109be565b82525050565b60006020820190506109ec60008301846109c8565b92915050565b600080fd5b610a0081610982565b8114610a0b57600080fd5b50565b600081359050610a1d816109f7565b92915050565b600060208284031215610a3957610a386109f2565b5b6000610a4784828501610a0e565b91505092915050565b60008115159050919050565b610a6581610a50565b82525050565b6000602082019050610a806000830184610a5c565b92915050565b600060c082019050610a9b6000830189610994565b610aa86020830188610994565b610ab56040830187610994565b610ac26060830186610a5c565b610acf60808301856109c8565b610adc60a08301846109c8565b979650505050505050565b7f4e487b7100000000000000000000000000000000000000000000000000000000600052601160045260246000fd5b6000610b21826109be565b9150610b2c836109be565b9250828201905080821115610b4457610b43610ae7565b5b92915050565b600082825260208201905092915050565b7f72656c6561736500000000000000000000000000000000000000000000000000600082015250565b6000610b91600783610b4a565b9150610b9c82610b5b565b602082019050919050565b6000606082019050610bbc60008301856109c8565b8181036020830152610bcd81610b84565b9050610bdc6040830184610994565b9392505050565b6000606082019050610bf860008301866109c8565b610c0560208301856109c8565b610c126040830184610994565b949350505050565b7f726566756e640000000000000000000000000000000000000000000000000000600082015250565b6000610c50600683610b4a565b9150610c5b82610c1a565b602082019050919050565b6000606082019050610c7b60008301856109c8565b8181036020830152610c8c81610c43565b9050610c9b6040830184610994565b939250505056fea26469706673582212209622f6f0618ff7ff0da19d7b5f31d52fe7cd3143bb4832e2df40910e0968496464736f6c63430008110033a264697066735822122085bc16444adfd4ff675cfaa77379ec8713f1a079db7091be22fc5aa2f62300c664736f6c63430008110033",
  "immutableReferences": {},
  "source": "// SPDX-License-Identifier: MIT\npragma solidity ^0.8.17;\n\nimport \"../contracts/Escrow.sol\";\n\ncontract EcommerceStore {\n    enum ProductStatus{ Open, Sold, Unsold}//\n    enum ProductCondition{ New, Used}//\n\n    uint public productIndex;//\n    mapping(address => mapping(uint256 => Product)) stores;//\n    mapping(uint256 => address) productIdInStore;//\n    mapping(uint256 => address) productEscrow;//Escrow\n\n    //\n    struct Product{\n        uint id;//\n        string name;//\n        string category;//\n        string imageLink;//\n        string descLink;//\n        uint auctionStartTime;//\n        uint auctionEndTime;//\n        uint startPrice;//\n        address highestBidder;//\n        uint highestBid;//\n        uint secondHighestBid;//\n        uint totalBids;//\n        ProductStatus status;\n        ProductCondition condition;\n        mapping (address => mapping(bytes32 => Bid)) bids;//hashmapping\n    }\n\n    //\n    struct Bid{\n        address bidder;//\n        uint productId;//\n        uint value;//\n        bool revealed;//\n    }\n\n    // \n    event NewProduct(\n        uint256 _productId,\n        string _name,\n        string _category,\n        string _imageLink,\n        string _descLink,\n        uint256 _auctionStartTime,\n        uint256 _auctionEndTime,\n        uint256 _startPrice,\n        uint256 _productCondition\n    );\n    \n    // \n    function store(uint256 index_) public {\n        productIndex = index_;\n    }\n\n    //\n    function addProductToStore(\n        string memory _name,\n        string memory _category,\n        string memory _imageLink,\n        string memory _descLink,\n        uint256 _auctionStartTime,\n        uint256 _auctionEndTime,\n        string memory _startPrice,\n        uint256 _productCondition\n    ) public {\n        require(_auctionStartTime < _auctionEndTime);\n        productIndex += 1;\n        // msg.sender\n        Product storage product = stores[msg.sender][productIndex];\n        product.id = productIndex;\n        product.name = _name;\n        product.category = _category;\n        product.imageLink = _imageLink;\n        product.descLink = _descLink;\n        product.auctionStartTime = _auctionStartTime;\n        product.auctionEndTime = _auctionEndTime;\n        product.startPrice = stringToUint(_startPrice);\n        product.status = ProductStatus.Open;\n        product.condition = ProductCondition(_productCondition);\n        // ID\n        productIdInStore[productIndex] = msg.sender;\n\t\temit NewProduct(productIndex, _name, _category, _imageLink, _descLink, _auctionStartTime, _auctionEndTime, stringToUint(_startPrice), _productCondition);\n    }\n\n\n    // \n    function getProduct(uint256 _productId) public view returns (\n            uint256,\n            string memory,\n            string memory,\n            string memory,\n            string memory,\n            uint256,\n            uint256,\n            uint256,\n            ProductStatus,\n            ProductCondition\n    ){\n        Product storage product = stores[productIdInStore[_productId]][\n            _productId\n        ];\n        return (\n            product.id,\n            product.name,\n            product.category,\n            product.imageLink,\n            product.descLink,\n            product.auctionStartTime,\n            product.auctionEndTime,\n            product.startPrice,\n            product.status,\n            product.condition\n        );\n    }\n\n    //\n    function getProductCount() public view returns (uint) {\n    return productIndex;\n    }\n\n    // \n    function bid(uint256 _productId, bytes32 _bid)public payable returns(bool){\n        Product storage product = stores[productIdInStore[_productId]][_productId];\n        require(block.timestamp >= product.auctionStartTime);//\n        require(block.timestamp <= product.auctionEndTime);//\n        require(msg.value >= product.startPrice, \"=\");//\n        require(product.bids[msg.sender][_bid].bidder ==0x0000000000000000000000000000000000000000,\"==\");//\n        product.bids[msg.sender][_bid] = Bid(msg.sender, _productId, msg.value, false);\n        product.totalBids += 1;//1\n        return true;\n    }\n\n    // \n    function revealBid(\n        uint256 _productId,\n        string memory _amount,\n        string memory _secret\n    ) public {\n        Product storage product = stores[productIdInStore[_productId]][_productId];\n        require(block.timestamp > product.auctionStartTime);//\n        // keccak256\n        bytes32 sealedBid = keccak256(abi.encode(_amount, _secret));//hash\n\n        Bid memory bidInfo = product.bids[msg.sender][sealedBid];//\n        require(bidInfo.bidder > 0x0000000000000000000000000000000000000000);//\n        require(bidInfo.revealed == false);//\n\n        uint256 refund;// \n        uint256 amount = stringToUint(_amount);//_amount\n\n        uint256 bidInfov = bidInfo.value;\n        if (bidInfov < amount) {//\n            refund = bidInfov;//\n        } else {\n            // \n            if (address(product.highestBidder) ==0x0000000000000000000000000000000000000000) {\n                product.highestBidder = msg.sender;\n                product.highestBid = amount;\n                product.secondHighestBid = product.startPrice;//\n                refund = bidInfov - amount;//\n            } else {//\n                // \n                if (amount > product.highestBid) {\n                    product.secondHighestBid = product.highestBid;//\n                    payable(product.highestBidder).transfer(product.highestBid);//\n                    product.highestBidder = msg.sender;\n                    product.highestBid = amount;\n                    refund = bidInfov - amount;\n                } else if (amount > product.secondHighestBid) {// \n                    product.secondHighestBid = amount;\n                    refund = amount;\n                } else {// \n                    refund = amount;//\n                }\n            }\n        }\n        \n        product.bids[msg.sender][sealedBid].revealed = true;//true\n\n        if (refund > 0) {\n            payable(msg.sender).transfer(refund);//ETH\n        }\n    }\n\n    // \n    function highestBidderInfo(uint256 _productId)public view returns(address, uint, uint){\n        Product storage product = stores[productIdInStore[_productId]][_productId];\n        return (product.highestBidder, product.highestBid, product.secondHighestBid);\n    }\n\n    //\n    function totalBids(uint256 _productId) public view returns (uint256) {\n        Product storage product = stores[productIdInStore[_productId]][_productId];\n        return product.totalBids;\n    }\n\n    // \n    function stringToUint(string memory s) private pure returns (uint256) {\n        bytes memory b = bytes(s);\n        uint256 result = 0;\n        for (uint256 i = 0; i < b.length; i++) {\n            if (uint8(b[i]) >= 48 && uint8(b[i]) <= 57) {//ASCII\n                result = result * 10 + (uint8(b[i]) - 48);\n            }\n        }\n        return result;\n    }\n\n    //\n    function finalizeAuction(uint256 _productId) public {\n        Product storage product = stores[productIdInStore[_productId]][ _productId];\n        // 48 hours to reveal the bid\n        require(block.timestamp > product.auctionEndTime);//\n        require(product.status == ProductStatus.Open);//\n        require(product.highestBidder != msg.sender);//\n        require(productIdInStore[_productId] != msg.sender);//\n\n        if (product.highestBidder == 0x0000000000000000000000000000000000000000) {//\n            product.status = ProductStatus.Unsold;\n        } else {\n            // Whoever finalizes the auction is the arbiter\n            Escrow escrow = (new Escrow){value: product.secondHighestBid}(\n                _productId,\n                product.highestBidder,\n                productIdInStore[_productId],\n                msg.sender\n            );\n            productEscrow[_productId] = address(escrow);\n            product.status = ProductStatus.Sold;\n            //             \n            uint256 refund = product.highestBid - product.secondHighestBid;\n            payable(product.highestBidder).transfer(refund);\n        }\n    }\n\n    // escrow \n    function escrowAddressForProduct(uint256 _productId)public view returns (address) {\n        return productEscrow[_productId];\n    }\n\n    //  escrow \n    function escrowInfo(uint256 _productId)public view returns (\n            address,\n            address,\n            address,\n            bool,\n            uint256,\n            uint256\n        ){\n        return Escrow(productEscrow[_productId]).escrowInfo();\n    }\n\n    // \n    function releaseAmountToSeller(uint256 _productId) public {\n        Escrow(productEscrow[_productId]).releaseAmountToSeller(msg.sender);\n    }\n\n    // \n    function refundAmountToBuyer(uint256 _productId) public {\n        Escrow(productEscrow[_productId]).refundAmountToBuyer(msg.sender);\n    }\n\n    // \n    function keccak(string memory _amount, string memory _secret) public pure returns (bytes32){   \n        return keccak256(abi.encodePacked(_amount, _secret));\n    }\n}\n",
  "sourcePath": "D:\\Truffle\\Auction\\contracts\\EcommerceStore.sol",
  "compiler": {
    "name": "solc",
    "version": "0.8.17+commit.8df45f5f.Emscripten.clang"
  },
  "schemaVersion": "3.4.16",
  "updatedAt": "2024-05-23T06:07:54.079Z",
  "networkType": "ethereum",
  "devdoc": {
    "kind": "dev",
    "methods": {},
    "version": 1
  },
  "userdoc": {
    "kind": "user",
    "methods": {},
    "version": 1
  }
}